:100000000C949E070C94BB070C94BB070C94BB0785
:100010000C94BB070C94BB070C94BB070C94BB0758
:100020000C94BB070C94BB070C94BB070C94C5073E
:100030000C94BB070C94BB070C94BB070C94BB0738
:100040000C94BB070C94BB070C94BB070C94BB0728
:100050000C94BB073C686561643E3C7469746C65D4
:100060003E41546D65676133322057656243616D6F
:100070003C2F7469746C653E3C7374796C652074B4
:100080007970653D22746578742F637373223E64C2
:1000900069767B77696474683A2036363070783BCD
:1000A000626F726465723A2031707820736F6C6988
:1000B0006420626C61636B3B6261636B67726F7536
:1000C0006E643A20236530653065303B706164644E
:1000D000696E673A203270783B7D23747B666F6E61
:1000E000742D73697A653A20313870783B20626FDD
:1000F000726465722D626F74746F6D3A20303B20AC
:100100006D617267696E2D746F703A203870783B3C
:100110007D23637B77696474683A20363630707863
:100120003B626F726465723A2031707820736F6C35
:10013000696420626C61636B3B6261636B67726FC1
:10014000756E643A20236530653065303B20706100
:100150006464696E673A203270783B746578742DF8
:10016000616C69676E3A2063656E7465723B6865A1
:10017000696768743A2034383070783B626F726413
:1001800065722D746F703A20303B626F72646572D5
:100190002D626F74746F6D3A20303B7D23647B62F7
:1001A0006F726465723A2031707820736F6C696485
:1001B00020626C61636B3B7D23667B666F6E742D82
:1001C00073697A653A20313470783B626F72646586
:1001D000722D746F703A20303B20746578742D61F5
:1001E0006C69676E3A2072696768743B207061645D
:1001F00064696E672D626F74746F6D3A2035707824
:100200003B7D23727B206261636B67726F756E64E6
:100210003A20236330633063303B20626F72646541
:10022000723A2031707820736F6C696420626C615F
:10023000636B3B2070616464696E672D6C656674E6
:100240003A20313070783B2070616464696E672DAC
:1002500072696768743A20313070783B74657874DD
:100260002D6465636F726174696F6E3A206E6F6E94
:10027000653B206D617267696E2D72696768743ABB
:1002800020313070783B207D23723A686F7665723A
:100290007B206261636B67726F756E643A202337EF
:1002A00030373037303B7D23777B766973696269FD
:1002B0006C6974793A2076697369626C653B206277
:1002C0006F726465723A2031707820736F6C696464
:1002D0002077686974653B20706F736974696F6E0D
:1002E0003A206162736F6C7574653B206261636B69
:1002F00067726F756E643A20233030303030303B97
:1003000020636F6C6F723A20236666666666663B92
:1003100020746F703A32303070783B206C656674B0
:100320003A34333070783B2077696474683A3135F9
:100330003070783B206865696768743A353070784A
:100340003B207A2D696E6465783A313B207D3C2FE5
:100350007374796C653E3C736372697074206C6170
:100360006E67756167653D224A6176617363726984
:1003700070742220747970653D22746578742F6AD8
:10038000617661736372697074223E66756E637420
:10039000696F6E20776169742869297B69662028F6
:1003A000646F63756D656E742E676574456C656DFD
:1003B000656E74427949642920646F63756D656E5A
:1003C000742E676574456C656D656E744279496419
:1003D00028227722292E7374796C652E76697369C9
:1003E00062696C697479203D2028693D3D313F2266
:1003F00076697369626C65223A2268696464656E25
:1004000022293B207D0A66756E6374696F6E2063D6
:10041000616D28297B776169742831293B696620E1
:1004200028646F63756D656E742E676574456C65C1
:100430006D656E74427949642920646F63756D65DA
:100440006E742E676574456C656D656E744279498E
:100450006428226422292E737263203D20222F6398
:10046000616D3F743D222B4D6174682E666C6F6F19
:1004700072283130302B4D6174682E72616E646F5A
:100480006D28292A383939293B2073657454696DE0
:10049000656F75742822776169742830293B222C96
:1004A00039303030293B7D0A66756E6374696F6E32
:1004B0002063616D322876616C297B7761697428CD
:1004C00031293B69662028646F63756D656E742EF3
:1004D000676574456C656D656E7442794964292061
:1004E000646F63756D656E742E676574456C656DBC
:1004F000656E744279496428226422292E737263DE
:10050000203D20222F63616D3F763D222B76616C6A
:100510002B2226743D222B4D6174682E666C6F6F02
:1005200072283130302B4D6174682E72616E646FA9
:100530006D28292A383939293B2073657454696D2F
:10054000656F75742822776169742830293B222CE5
:1005500039353030293B7D0A3C2F736372697074E2
:100560003E3C2F686561643E3C626C6F636B7175E5
:100570006F74653E0D0A3C626C6F636B71756F74CE
:10058000653E0D0A3C626F6479206267636F6C6F31
:10059000723D22233333363639392220766C696E28
:1005A0006B3D22233030303030302220616C696E58
:1005B0006B3D222330303030303022206C696E6B3E
:1005C0003D222330303030303022206F6E4C6F614E
:1005D000643D22776169742830293B223E3C636583
:1005E0006E7465723E3C2F63656E7465723E3C634B
:1005F000656E7465723E3C6469762069643D227460
:10060000223E41546D6567613332202B204D4341BA
:100610002D3235202B2052544C383031393C2F6448
:1006200069763E3C6469762069643D2263223E3CE3
:100630006469762069643D2277223E3C62723E6C9A
:100640006F6164696E672E2E2E3C2F6469763E3C86
:10065000696D672069643D226422206E616D653D8D
:100660002263616D22207372633D22706963747529
:1006700072652E6A706722206865696768743D221A
:10068000343830222077696474683D223634302251
:1006900020616C743D226C6F6164696E672E2E2E32
:1006A000223E3C2F6469763E3C6469762069643D55
:1006B0002266223E536572766F203A203C612069A3
:1006C000643D22722220687265663D2230303022FD
:1006D0003E3132353C2F613E3C612069643D2272DF
:1006E0002220687265663D22303235223E3130303C
:1006F0003C2F613E3C612069643D22722220687279
:1007000065663D22303530223E37353C2F613E3C18
:10071000612069643D22722220687265663D223044
:100720003735223E35303C2F613E3C612069643DC7
:1007300022722220687265663D22313030223E32BC
:10074000353C2F613E3C612069643D227222206865
:100750007265663D22313235223E303C2F613E3C8F
:10076000612069643D22722220687265663D2231F3
:100770003530223E32353C2F613E3C612069643D7C
:1007800022722220687265663D22313735223E355D
:10079000303C2F613E3C612069643D22722220681A
:1007A0007265663D22323030223E37353C2F613E45
:1007B0003C612069643D22722220687265663D2298
:1007C000323235223E3130303C2F613E3C6120696F
:1007D000643D22722220687265663D2232353022E5
:1007E0003E3132353C2F613E203A203C6120696425
:1007F0003D22722220687265663D22223E72656C3F
:100800006F61643C2F613E3C2F6469763E3C6469B5
:10081000762069643D2266223E52656C61697320D0
:100820003A203C612069643D22722220687265662C
:100830003D22796171777378223E7363686C6965D4
:100840007373656E3C2F613E3C612069643D22728A
:100850002220687265663D22636465726676223E78
:100860006F6566666E656E3C2F613E3C2F646976EF
:100870003E3C6120687265663D22687474703A2F50
:100880002F6269676261626F752E64796E646E7340
:100890002E696E666F223E486F6D65706167653CBC
:1008A0002F613E3C2F63656E7465723E3C2F626F14
:1008B00064793E3C2F68746D6C3E3C63656E746574
:1008C000723E4269675765624261626F752C2041D2
:1008D000546D6567613332202D2031342C37343527
:1008E00036204D487A202D2048616E647943616D31
:1008F000202D20536572766F202D207549503C2F96
:1009000063656E7465723E3C2F626F64793E3C2F66
:1009100068746D6C3E0D0A0D0A25454F46003C6813
:10092000746D6C3E3C626F6479206267636F6C6FBC
:10093000723D227768697465223E3C63656E74651A
:10094000723E3C68313E343034202D2066696C653F
:10095000206E6F7420666F756E643C2F68313E3C6C
:100960002F63656E7465723E3C2F626F64793E3C06
:100970002F68746D6C3E0D0A0D0A0032353000325E
:10098000353000323235003232350032303000320C
:1009900030300031373500313735003135300031F6
:1009A00035300031323500313235003130300031F0
:1009B00030300030373500303735003035300030DA
:1009C00035300030323500303235003030300030D4
:1009D0003030006364657266760079617177737890
:1009E00000706963747572652E6A70670073657351
:1009F000616D2E68746D6C00474554202F00454F83
:100A000046000D0A0D0A00F981EF3F830082710054
:100A1000583C6D6F6E69746F72696E672D636F6D90
:100A20006D616E642076657273698CF9F981EF3FB0
:100A30006F6E3D22312E30222074616B652D7069FE
:100A4000633D224E4F222073656E642D7069788C51
:100A5000F9F981EF3F656C2D73697A653D22363473
:100A6000302A3438303332302A3234303136302A7A
:100A700031323022207A6F6F6D3D223130222F3E8D
:100A800042008CF9F981EF3F21782D62742F696D56
:100A90006167696E672D6D6F6E69746F72696E67DD
:100AA0002D696D616765008CF9F981EF0D4C0006C9
:100AB0000601804BF9F981EF3F83006971003F3CEB
:100AC0006D6F6E69746F72696E672D636F6D6D61A6
:100AD0006E642076657273698CF9F981EF3F6F6EF1
:100AE0003D22312E30222074616B652D7069633D8B
:100AF0002259455322207A6F6F6D3D22318CF9F9CE
:100B000081EF3F30222F3E420021782D62742F6901
:100B10006D6167696E672D6D6F6E69746F72696E56
:100B2000672D8CF9F981EF19696D616765004C00DB
:100B30000606018050F9F981EF3F82013B01000375
:100B40004901353C63616D6572612D73657474692B
:100B50006E67732076657273698CF9F981EF3F6F68
:100B60006E3D22312E30222077686974652D6261D6
:100B70006C616E63653D224F46462220636F8CF99F
:100B8000F981EF3F6C6F722D636F6D70656E7361ED
:100B900074696F6E3D223133222066756E2D6C6153
:100BA0007965728CF9F981EF3F3D2230223E3C6D30
:100BB0006F6E69746F72696E672D666F726D6174A6
:100BC00020656E636F64696E8CF9F981EF3F673D54
:100BD0002245424D502220706978656C2D73697AE8
:100BE000653D2238302A36302220636F6C8CF9F94B
:100BF00081EF3F6F722D64657074683D2238222F3B
:100C00003E0D0A3C7468756D626E61696C2D666F8D
:100C1000726D8CF9F981EF3F617420656E636F64CA
:100C2000696E673D2245424D502220706978656C9F
:100C30002D73697A653D228CF9F981EF3F313031AE
:100C40002A38302220636F6C6F722D64657074686F
:100C50003D2238222F3E0D0A3C6E61748CF9F981D9
:100C6000EF3F6976652D666F726D617420656E6306
:100C70006F64696E673D222220706978656C2D7300
:100C8000698CF9F981EF3F7A653D223136302A319E
:100C90003230222F3E0D0A3C2F63616D6572612D4B
:100CA00073657474696E8CF9F981EF0B67733E0D8F
:100CB0000AAFF9F901EF0BE307230C0179F900F909
:100CC00083EF3100F983EF2100F983EF3FA000F9B2
:100CD00083EF3F900200F921EF0D0D0A4F4B0D0AF3
:100CE00048F900F983EF337965723D223130222FC4
:100CF0003E3C2F63616D6572612D696E666F3E00CB
:100D0000E4F90090F9002D696E666F0014782D6289
:100D1000742F63616D65726100174200F981EF2FD6
:100D20008300F983EF07A00003C7F900F983EF3FC1
:100D3000A0001F10002000CB000000014A0013E3B8
:100D40003D954583744AD79EC5C16BE31EDE8EED8B
:100D5000F900F921EF0D0D0A4F4B0D0A48F9009EDD
:100D6000C5C16BE31EDE8E6182F90013E33D95453C
:100D700083744AD700460002001A1000F981EF3749
:100D80008000F901EF09E105838D9AF900F903EF7D
:100D900009E305838DFBF900F981730160F900F91E
:100DA000813F01ABF900F921EF0D0D0A4F4B0D0A00
:100DB00048F900F923EF2341542B435343433D3279
:100DC0002C3139392C42390DFBF900F921EF0D0D89
:100DD0000A4F4B0D0A48F900F921EF1B0D0A2B436E
:100DE0005343433A2045330D0AB0F900F923EF1D70
:100DF00041542B435343433D312C3139390D35F99F
:100E000000F921EF0D0D0A4F4B0D0A48F900F923A7
:100E1000EF1B41542A454143533D31372C310DD10D
:100E2000F900F901EF09E105238D9AF900F903EFC3
:100E300009E107230C01FBF900F901EF0BE307239C
:100E40000C0179F900F903EF09E305238DFBF900A3
:100E5000F923730102F900F9233F01C9F900F903ED
:100E60007301D7F900F9033F011CF9000D0D0A4F7A
:100E70004B0D0A0041542B434D55583D302C302C1E
:100E8000372C3331000D0D0A2B434D55583A20288D
:100E900030292C2830292C28312D37292C28333182
:100EA000292C283130292C2833292C283330292C7F
:100EB000283130292C28312D37290D0041542B435E
:100EC0004D55583D3F000D0A4F4B0D0A0041542B24
:100ED0004950523D343630383030002B4950523A68
:100EE0002028292C28313230302C323430302C3428
:100EF0003830302C393630302C31393230302C33D8
:100F0000383430302C35373630302C3436303830B9
:100F100030290D0A0D0A4F4B0D0A0041542B495040
:100F2000523D3F000D0D0A4F4B0D0A00415426461D
:100F30000003A6F900F981EF0783000011241FBE0A
:100F4000CFE5D8E0DEBFCDBF10E0A0E6B0E0E4E042
:100F5000FDE302C005900D92A437B107D9F715E063
:100F6000A4E7B0E001C01D92A43AB107E1F70E94E6
:100F7000E6070C94811E0C94000085E083BF89B7BE
:100F8000816089BF1092740008951F920F920FB66E
:100F90000F9211248F939F93809174008F5F8093A1
:100FA0007400992783709070892B49F48091E80030
:100FB000882329F08091E80081508093E8009F9178
:100FC0008F910F900FBE0F901F901895CFE5D8E02E
:100FD000DEBFCDBFBC9A88B388BB0E9483130E943A
:100FE00086130E94D4080E940C1B85E083BF89B73A
:100FF000816089BF1092740060E08FE590E00E94EC
:10100000760B7894959A949A93980E94710E0E9408
:10101000FA0D939A959894980E94FD0FFF2487EFFC
:10102000C82E82E0D82E0E9439139093EB02809351
:10103000EA028091EA029091EB02892B29F58091D6
:1010400074008D3180F310927400E601D093F602A3
:10105000C093F50282E00E94B2148091EA0290915E
:10106000EB02892B21F00E94211B0E945413A396AE
:1010700083E0C036D80751F7F39484E1F81699F667
:101080000E94DF1AFF24CFCF0091760310917703DF
:1010900080E098E00E94E8130817190779F40E948D
:1010A000471D81E00E94B2148091EA029091EB0208
:1010B000892B09F4B8CF0E94211B15C0009176033B
:1010C0001091770386E098E00E94E813081719074B
:1010D00009F0A9CF0E94A11C8091EA029091EB0235
:1010E000892B09F4A0CF0E9454139DCF9C010DC001
:1010F000F9019491FB018491981719F081E090E037
:1011000008952F5F3F4F6F5F7F4F415088F780E01A
:1011100090E00895EF92FF920F931F93CF93DF9388
:10112000FC01C181D28100E010E08EEFE82E89E061
:10113000F82E1AC0A091F302B091F402A00FB11FD3
:10114000CE012196FC0184918C938C91853251F4CF
:1011500043E0BE01C7010E947608882319F4C0E06D
:10116000D0E00BC00F5F1F4FE091F502F091F60247
:101170008289938908171907E8F20115110561F0B2
:101180008091F3029091F4029093ED028093EC022F
:101190001093A3050093A205CE01DF91CF911F917B
:1011A0000F91FF90EF90089580E090E50E94CC139E
:1011B00008958091EA029091EB020597A8F0809142
:1011C000EA029091EB022091F3023091F402820F37
:1011D000931F44E050E062E07AE004970E94641EAE
:1011E00020E030E0892B11F421E030E0C9010895BE
:1011F000EF92FF920F931F93CF93DF93EC017B014C
:101200000E94D908882329F19091E700892F8770DF
:1012100011F080E203C093FF04C080E18093F202EA
:1012200018C086E088838091E70088608093E7009B
:1012300009EE10E0B701C8010E94A70D1093ED025E
:101240000093EC02F701808191819093A305809334
:10125000A205DF91CF911F910F91FF90EF9008951C
:10126000CF93DF93EB01E091F502F091F602228932
:101270003389AB012617370708F4A901BC01809117
:10128000F3029091F4020E945B1E8091F302909110
:10129000F4029093ED028093EC02D093A305C093E7
:1012A000A205DF91CF910895EF92FF920F931F93C4
:1012B000CF93DF93E090F502F090F602E7016C9691
:1012C0008091F20286FF03C0F701148EE2C1809183
:1012D000F20281FF48C1F701848D813009F439C1E0
:1012E000813038F0843009F420C1853009F03BC1E9
:1012F00035C10091F3021091F40245E050E068EF2F
:1013000079E0C8010E94641E892B19F080E2809365
:10131000F2020B5F1F4F47E050E06DEE79E0C8012D
:101320000E94641E892B21F481E0F701848F11C192
:1013300047E050E061EE79E0C8010E94641E892B0D
:1013400021F485E0F701848F09C143E050E06AEDA4
:1013500079E0C8010E94641E892B71F4C49A84E567
:1013600090E09A83898382E0F701848FCE010E9406
:101370008A089E838D83F7C043E050E063ED79E0F7
:10138000C8010E94641E892B11F4C498E8CF43E081
:1013900050E06FEC79E0C8010E94641E892B41F493
:1013A00081ED99E00E943D1E0E94DC0F80E010C09C
:1013B00043E050E067EC79E0C8010E94641E892B8D
:1013C00051F489EC99E00E943D1E0E94DC0F89E1F6
:1013D0000E94F80FC4CF43E050E06FEB79E0C80102
:1013E0000E94641E892B41F481EC99E00E943D1E0D
:1013F0000E94DC0F82E387C043E050E067EB79E0B6
:10140000C8010E94641E892B41F489EB99E00E9477
:101410003D1E0E94DC0F8BE476C043E050E06FEA93
:1014200079E0C8010E94641E892B41F481EB99E0A8
:101430000E943D1E0E94DC0F84E665C043E050E040
:1014400067EA79E0C8010E94641E892B41F489EAA9
:1014500099E00E943D1E0E94DC0F8DE754C043E0DE
:1014600050E06FE979E0C8010E94641E892B41F4C5
:1014700081EA99E00E943D1E0E94DC0F86E943C08C
:1014800043E050E067E979E0C8010E94641E892BBF
:1014900041F489E999E00E943D1E0E94DC0F8FEA29
:1014A00032C043E050E06FE879E0C8010E94641E5A
:1014B000892B41F481E999E00E943D1E0E94DC0FD6
:1014C00088EC21C043E050E067E879E0C8010E9461
:1014D000641E892B41F489E899E00E943D1E0E9418
:1014E000DC0F81EE10C043E050E06FE779E0C80107
:1014F0000E94641E892B81F481E899E00E943D1EC0
:101500000E94DC0F8AEF0E94F80F84E590E09A8336
:10151000898382E088832ACF84E088830E94D90867
:10152000882309F183E0888307C00E94D9088823B3
:10153000D1F083E0F701848F8EE199E09A8389836B
:101540002DE530E03E832D836DE570E00E9430098B
:101550000AC00E94D908882331F001CF65E770E006
:10156000CE010E94F8088091F20282FF1CC088819F
:10157000833059F0863081F0823009F08AC0CE0184
:101580000E948A089E838D8384C06D817E818981BB
:101590009A810E9430097DC089EE90E09093ED021F
:1015A0008093EC0244C08091F20280FF54C0888195
:1015B000833031F0863051F1823009F04CC01AC0CE
:1015C000E091F502F091F6026D817E818289938926
:1015D00068177907E8F189819A8120893189820F1A
:1015E000931F9A838983621B730B7E836D830E9492
:1015F000300931C08D819E81009751F19A83898392
:10160000CE010E948A089E838D8325C08091600050
:101610008823B1F009EE10E065E770E0C8010E9490
:10162000A70D809360001093ED020093EC0280916F
:101630007500909176009093A3058093A20529C030
:1016400081E0809360008091E700877F8093E700CE
:1016500080E18093F2028091F20285FD04C08091C6
:10166000F20287FF16C08091E70083FF12C005E7F2
:1016700010E0C9EED0E0B801CE010E94A70D88238A
:10168000D1F78091E700877F8093E70081E0809326
:101690006000DF91CF911F910F91FF90EF9008951F
:1016A000E091F502F091F602848195818050904599
:1016B00019F40E945409089580E28093F20208957B
:1016C00023E030E040E050E0E22FF32F3197F1F7D4
:1016D0008A95D1F7089526E63EE040E050E0E22FFB
:1016E000F32F3197F1F78A95D1F70895292F3327F2
:1016F00020BD89B988E18AB9662311F0599A089505
:10170000599808955D9BFECF8CB9089584EB809322
:10171000E80007C08091E800882319F480E090E099
:1017200008955F9BF7CF8CB19927089501C08CB1C4
:101730005F99FDCF089503C05D9BFECF2CB9FC01DE
:10174000019624912223C1F70895DC01FB0109C011
:1017500094918C91891719F081E090E00895319669
:1017600011964150A8F780E090E008950F931F93E1
:10177000CF93DF938C01EB0107C0F8010F5F1F4F80
:10178000E4918E2F0E94820B21978FEFCF3FD807D5
:10179000A1F7DF91CF911F910F9108951F93182FFB
:1017A00067E570E087E09AE00E94B60B113019F00F
:1017B000123059F405C067E070E085E69AE009C090
:1017C00067E070E08EE59AE004C067E070E08CE6C8
:1017D0009AE00E94B60B62E470E083E79AE00E9410
:1017E000B60B1F91089585E39FE00E949B0B80E05C
:1017F0000E94820B81E39FE00E949B0B0895AF92B1
:10180000BF92CF92DF92EF92FF920F931F93CF93ED
:10181000DF93CDB7DEB721970FB6F894DEBF0FBECA
:10182000CDBF5B016A01FB0111821082EE24FF240F
:101830000FE110E0F1E0F98394C093980E94860BC9
:10184000282F939A1C3009F456C01D3090F41230A2
:1018500099F1133030F4112319F1113009F081C0DE
:1018600023C01A30D9F11B30E8F5133009F079C0E4
:101870002BC01F3009F45AC0103138F41D3009F460
:101880004DC01E3009F06DC04EC0153639F0163609
:1018900009F461C0143609F064C04BC016E661C09B
:1018A000893F09F05EC05CC0833811F412E059C072
:1018B000893F09F053C055C08F3E11F413E051C069
:1018C000893F09F04BC04CC09927019795958795A2
:1018D000082F2981213059F51AE043C001501BE03F
:1018E00019823FC09927982F8827F501918380831B
:1018F00001501CE036C0F501808191810697820F6E
:10190000911D918380838150924028F080E092E085
:10191000F5019183808301501DE023C0F60180838F
:1019200001501EE01EC001501FE01BC0015014E614
:1019300018C0F0E0EF16F2E0FF0628F4F701E751D7
:10194000FF4F808301C095980894E11CF11C015061
:1019500041F415E606C0893F09F0959810E001C0F2
:1019600011E0F50180819181009709F466CFE816B6
:10197000F90608F462CF143608F05FCF1C3009F482
:101980005CCF21960FB6F894DEBF0FBECDBFDF91BE
:10199000CF911F910F91FF90EF90DF90CF90BF906C
:1019A000AF900895CF92DF92FF920F931F93CF9342
:1019B000DF936C0100E010E0F02E9398E601C00F79
:1019C000D11F0E94860B8883939A002319F0888187
:1019D000893F51F08091E800882331F0F3940F5F44
:1019E0001F4F0832110541F78F2D9927DF91CF91B5
:1019F0001F910F91FF90DF90CF9008952F923F920B
:101A00004F925F926F927F928F929F92AF92BF920E
:101A1000CF92DF92FF920F931F93CF93DF93FF2418
:101A2000C9EED0E0F5EB2F2EFAE03F2EE6ED4E2E7C
:101A3000ECE05E2E74EC672E7CE0772E6FEB862E4A
:101A40006CE0962E5FECA52E5CE0B52E49ECC42E22
:101A50004CE0D42ECE010E94D20C61E870E0C101AE
:101A60000E94B60BC2010E949B0B0E94F30B10E078
:101A700000E0CE010E94D20C112321F0113009F0B8
:101A80004AC037C046E0B501CE010E94A50B8823AD
:101A9000D1F48091F000833C31F48091F1008823EF
:101AA00021F501E022C0883429F48091F1008130D1
:101AB00031F407C08934C9F48091F10013C0882340
:101AC000A1F402E012C045E0B601CE010E94A50BD0
:101AD000882379F68091F000893439F48091F100FF
:101AE000882311F0813009F403E00E94F30B11E028
:101AF000C0CF44E0B301CE010E94A50B882341F082
:101B000044E0B401CE010E94A50B882309F0B1CFB7
:101B1000033049F403C0143609F0ABCFF39486E0E8
:101B2000F81619F097CF10E0A4CFDF91CF911F9155
:101B30000F91FF90DF90CF90BF90AF909F908F90CC
:101B40007F906F905F904F903F902F900895EF920D
:101B5000FF920F931F93CF93DF93CDB7DEB72197FB
:101B60000FB6F894DEBF0FBECDBF7C018B0119828A
:101B7000FB01118210828091E70086FF0BC00E945A
:101B8000FE0C82E00E94CE0B8091E7008F7B809359
:101B9000E70002C00E94F30BAE014F5F5F4FB80138
:101BA000C7010E94FF0BF80180819181892B21F4EC
:101BB00080E092E0918380838981883419F481E008
:101BC00090E00BC083EB9CE00E949B0B8091E700B0
:101BD00080648093E70080E090E021960FB6F8944F
:101BE000DEBF0FBECDBFDF91CF911F910F91FF9050
:101BF000EF90089589EE90E00E94D20C6DE771E0BD
:101C000086E39BE00E94B60B89EE90E00E94D20C26
:101C100049E062E27DE089EE90E00E94A50B882316
:101C200069F58CE19DE00E949B0B80E00E94820B95
:101C300089E19DE00E949B0B80E00E94820B8CE07A
:101C40009DE00E949B0B86E09DE00E949B0B80E044
:101C50000E94820B83E09DE00E949B0B89EE90E046
:101C60000E94D20C4FE163EE7CE089EE90E00E948E
:101C7000A50B882319F080E090E0089587E090E0BC
:101C80000895CF92DF92FF920F931F93CF93DF932C
:101C90006C01C0E0D0E0FC2E939886010C0F1D1F54
:101CA0000E94860BF8018083939A80818D3049F0E1
:101CB0008091E800882329F0F3942196C832D10559
:101CC00051F78F2D9927DF91CF911F910F91FF90A1
:101CD000DF90CF90089596988AE00E946B0B969AB9
:101CE000089580E481BB8FEB82BB8AE00E946B0B7E
:101CF0000E946B0E8B9A8C9A8D9A81E00E946B0BDE
:101D00000E94960B89EE90E00E94410E44E06CE246
:101D10007FE08BEE90E00E94A50B882319F081E014
:101D200090E0089584E29FE00E949B0B89EE90E092
:101D30000E94410E48E06BE17FE089EE90E00E9456
:101D4000A50B882309F032C18BED9EE00E949B0B0E
:101D500089EE90E00E94410E4DE06DEC7EE089EE50
:101D600090E00E94A50B882309F020C186EC9EE03C
:101D70000E949B0B8AE00E946B0B60E081E090E088
:101D80000E94760B81E00E946B0B0E94960B89EEFD
:101D900090E00E94410E49E06CEB7EE089EE90E01D
:101DA0000E94A50B882319F083E090E0089585E850
:101DB0009EE00E949B0B89EE90E00E94410E40E164
:101DC00064E77EE089EE90E00E94A50B882319F07D
:101DD00084E090E008958CE69EE00E949B0B89EEE3
:101DE00090E00E94D20C46E065E67EE089EE90E04D
:101DF0000E94A50B882309F0DCC08EE59EE00E94BE
:101E00009B0B89EE90E00E94D20C46E067E57EE0F5
:101E100089EE90E00E94A50B882309F0CAC080E5F6
:101E20009EE00E949B0B89EE90E00E94D20C4AE05B
:101E300065E47EE089EE90E00E94A50B882309F01E
:101E4000B8C089E39EE00E949B0B89EE90E00E945F
:101E5000D20C4BE06DE27EE089EE90E00E94A50B93
:101E6000882309F0A6C082E29EE00E949B0B89EEC7
:101E700090E00E94D20C43E16EE07EE089EE90E0BB
:101E80000E94A50B882309F094C081E09EE00E9487
:101E90009B0B89EE90E00E94D20C44E16CEE7DE059
:101EA00089EE90E00E94A50B882309F082C088ED9E
:101EB0009DE00E949B0B8BEC9DE00E949B0B89EEAA
:101EC00090E00E94D20C47E163EB7DE089EE90E068
:101ED0000E94A50B882309F06CC086EA9DE00E9451
:101EE0009B0B8FE99DE00E949B0B89EE90E00E9486
:101EF000D20C46E068E97DE089EE90E00E94A50BF7
:101F0000882309F056C089EE90E00E94D20C4AE086
:101F10006DE87DE089EE90E00E94A50B882309F032
:101F200048C082E89DE00E949B0B8CE79DE00E94E8
:101F30009B0B80E00E94820B89E79DE00E949B0B37
:101F400080E00E94820B87E79DE00E949B0B80E06F
:101F50000E94820B85E79DE00E949B0B80E00E941F
:101F6000820B8BE69DE00E949B0B8FE59DE00E941B
:101F70009B0B82E59DE00E949B0B89EE90E00E9406
:101F8000D20C45E26CE27DE089EE90E00E94A50B68
:101F9000882319F086E090E008958091E700877E1D
:101FA00080648093E70080E090E0089582E090E014
:101FB000089585E090E008958093E90281E08093A0
:101FC000770008956091E9027727882799272EE006
:101FD00030E040E050E00E94E11D2FEF30E040E0B3
:101FE00050E00E94001E235F23BD109277000895E9
:101FF0008093E9020E94E20F08958FE685BD8F9AD3
:102000008FE70E94F80F08959BB3907E982B9BBB9F
:102010008FEF84BB65BBC19800000000C19A14BA61
:1020200085BB08959BB3907E982B9BBBC298000004
:10203000000083B3C29A992708958AB38F618ABB3F
:102040008FEF85BBBA9AB99AC29AC19AB89A089585
:102050000F931F93CF93DF93EC018C01CC9710F477
:10206000CCE3D0E062E280E00E94041080E00E94B5
:10207000121082FDFBCF60E484E00E94041060E057
:1020800088E00E94041060E489E00E94041062E08D
:1020900087E00E940410602F8AE00E940410612FE4
:1020A00077278BE00E9404106C2F85E00E940410BB
:1020B0006D2F772786E00E94041062E180E00E9485
:1020C0000410DF91CF911F910F910895EF92FF922D
:1020D0000F931F93CF93DF937C018B01C0E0D0E07F
:1020E00008C0F701EC0FFD1F608180E10E94041021
:1020F0002196C017D107A9F7DF91CF911F910F91BA
:10210000FF90EF90089564E280E00E94041060E484
:1021100087E00E9404100895CF92DF92EF92FF9221
:102120000F931F93CF93DF936C018B018AE00E9482
:102130000410612F77278BE00E940410E090790053
:10214000F0907A006E2D88E00E9404106F2D7727A2
:1021500089E00E9404106AE080E00E940410C0E060
:10216000D0E008C080E10E941210F601EC0FFD1FC4
:1021700080832196C017D107A9F762E280E00E9410
:102180000410C0E0D0E087E00E94121086FD04C079
:102190002196C531D105B9F760E487E00E940410AB
:1021A000B8016E0D7F1D70937A006093790080E610
:1021B0006030780730F060507A4170937A00609315
:1021C0007900DF91CF911F910F91FF90EF90DF90F9
:1021D000CF9008951F9362E280E00E94041010E007
:1021E00087E00E94121086FD03C01F5F1531C1F702
:1021F00060E487E00E9404106091780083E00E9410
:1022000004101F9108950F931F93CF93DF93182FFE
:102210001F71106861EE80E00E94041060E881E0A8
:102220000E94041064E881E00E94041060E881E0EC
:102230000E9404106AE881E00E9404106EE881E0C8
:102240000E9404106AE881E00E940410C7E0D0E018
:10225000012F1127C8010C2E02C0959587950A946D
:10226000E2F780FF0AC06AE881E00E9404106EE88D
:1022700081E00E9404106AE809C068E881E00E94D9
:1022800004106CE881E00E94041068E881E00E947C
:10229000041021978FEFCF3FD807E1F668E881E07F
:1022A0000E94041000E010E0CFE0D0E06CE881E094
:1022B0000E94041068E881E00E94041081E00E94FE
:1022C000121080FF0AC081E090E00C2E02C0880F3F
:1022D000991F0A94E2F7082B192B21978FEFCF3F14
:1022E000D80721F760E881E00E940410C801DF915F
:1022F000CF911F910F910895EF92FF920F931F932B
:10230000CF93DF93CDB7DEB726970FB6F894DEBF35
:102310000FBECDBF0E941D10C09A8AE00E946B0BB9
:10232000C09887E00E941210682F87E00E94041076
:1023300084E10E946B0B61EE80E00E94041060EC6F
:1023400081E00E94041060E285E00E94041060E0D9
:1023500086E00E94041084E10E946B0B8E010F5FE7
:102360001F4F52E0F52E8F2D0E940311292F332786
:10237000F80121838083F3940E5F1F4FF5E0FF1671
:1023800091F760E081E00E94041061E280E00E9429
:10239000041082E00E946B0B68E58EE00E9404103E
:1023A00060E08AE00E94041060E08BE00E9404106C
:1023B00064E08CE00E94041060E484E00E94041059
:1023C00062E08DE00E94041066E481E00E94041047
:1023D00066E483E00E94041060E682E00E9404103C
:1023E00061E680E00E94041082E00E946B0B66E4CC
:1023F00087E00E94041061E680E00E9404107E01E4
:102400000894E11CF11C10E01F5FF70161917F014E
:10241000812F0E9404101630B9F7898180936D00D6
:102420008A8180936E008B8180936F008C81809372
:1024300070008D81809371008E818093720061E2C3
:1024400080E00E94041068E58EE00E94041062E2C1
:1024500080E00E9404106FEF87E00E94041061E1A9
:102460008FE00E94041060E08DE00E94041062E2A0
:1024700080E00E94041026960FB6F894DEBF0FBECF
:10248000CDBFDF91CF911F910F91FF90EF900895F5
:102490001F9380E00E941210182F61E280E00E94DA
:1024A000041082E00E946B0B60E08AE00E9404103E
:1024B00060E08BE00E94041012FF0AC087E00E94D7
:1024C0001210992781FD04C083FD02C011E001C0F4
:1024D00010E062E08DE00E94041062E280E00E9461
:1024E000041066E483E00E94041062E680E00E942B
:1024F000041066E487E00E94041062E280E00E941B
:10250000041060E187E00E94041060E08DE00E940A
:102510000410112321F066E280E00E9404106FEFA6
:1025200087E00E9404101F91089587E00E94121016
:1025300084FF02C00E9448120895DF92EF92FF923A
:102540000F931F93CF93DF93CDB7DEB724970FB6CA
:10255000F894DEBF0FBECDBF0E94951262E680E008
:102560000E94041087E00E941210182F62E280E09F
:102570000E94041083E00E941210D82E811709F4E3
:1025800068C061E087E00E9404108D2D86548A3176
:1025900088F066E483E00E94041062E680E00E9416
:1025A000041066E487E00E94041062E280E00E946A
:1025B00004104FC064E08AE00E94041060E08BE0E9
:1025C0000E94041060E088E00E9404106D2D89E0F4
:1025D0000E9404106AE080E00E9404108E010F5FE8
:1025E0001F4FE5E0EE2EF12CEC0EFD1E80E10E9467
:1025F0001210F80181938F01EE15FF05B9F762E221
:1026000080E00E94041010E087E00E94121086FD16
:1026100003C01F5F1531C1F760E487E00E9404101A
:102620003C814B812A81209378008D2D9927982F0A
:102630008827049690937A008093790026542A3153
:1026400040F4832F9927982F8827840F911D049792
:1026500002C080E090E024960FB6F894DEBF0FBE73
:10266000CDBFDF91CF911F910F91FF90EF90DF9041
:102670000895CF93DF930E949D12EC01892B81F086
:1026800082E0C733D80728F00E94EA10C0E0D0E00B
:1026900007C0BE018AE693E00E948C100E94EA10F7
:1026A000CE01DF91CF9108958091EA029091EB02E3
:1026B0000E9428108091EA029091EB02C79738F4AB
:1026C0006091EA027091EB028AE693E017C0809174
:1026D000EA029091EB02C6979093EB028093EA0294
:1026E00066E370E08AE693E00E9466106091EA0279
:1026F0007091EB028091F3029091F4020E946610B7
:102700000E94831008950E947C11089580E009C002
:10271000E82FFF27EE0FFF1FE05AFC4F11821082B7
:102720008F5F8530A8F340E00FC0242F332783E26A
:1027300090E0289FF001299FF00D389FF00D1124A3
:10274000E950FD4F118E4F5F433078F34093830083
:1027500080E094E090938200809381000895AC0122
:102760001092830020E013C0E22FFF27322F3F5F3B
:10277000EE0FFF1FE05AFC4F80819181841795076F
:1027800029F420938300118210820895232F25308D
:1027900058F3209383000895AC011092830020E049
:1027A00012C0E22FFF27322F3F5FEE0FFF1FE05ACC
:1027B000FC4F80819181892B29F4209383005183E0
:1027C00040830895232F253060F3209383000895DC
:1027D0009C01892F9927322F2227822B932B089532
:1027E000AF92BF92CF92DF92EF92FF920F931F931F
:1027F000CF93DF936C015B01009181001091820007
:102800000F5F1F4F8DE70030180710F000E010E158
:10281000EE24FF2414C083E2989FE0011124C950E4
:10282000DD4F898D882341F0C8010E94E8132C8177
:102830003D812817390721F30894E11CF11C9E2DD6
:10284000E3E0EE16F10439F7109382000093810063
:1028500010928300A091F502B091F602C0E0D0E0A2
:1028600020E019C083E2289FF0011124E950FD4FB8
:10287000818D882321F420938300EF0110C08730DD
:1028800049F4209731F0928D5A968C915A97891776
:1028900008F4EF012F5F233028F320938300209763
:1028A00081F182E0898F80917D008C8780917E000C
:1028B0008D8780917F008E87809180008F8780E058
:1028C00092E09B8B8A8B9D8B8C8B81E090E0998B27
:1028D000888B1B8E81E08A8F83E0888F1E8A80E13F
:1028E0008F8BC8010E94E8139D838C83BF82AE82C8
:1028F000F6018081918199838883828193819B8372
:102900008A83CE01DF91CF911F910F91FF90EF90BD
:10291000DF90CF90BF90AF900895BC018091F502F9
:102920009091F60208960E947D1D8091EE02E09142
:10293000F502F091F60280878091EF02E091F502B6
:10294000F091F60281878091F002E091F502F0911A
:10295000F60282878091F102E091F502F091F60291
:10296000838708950F931F93CF93DF93C091F50250
:10297000D091F60220EA33E03093F4022093F30280
:10298000823009F096C0809180008F5F8093800034
:10299000882399F480917F008F5F80937F00882344
:1029A00061F480917E008F5F80937E00882329F4FC
:1029B00080917D008F5F80937D001092EB021092DA
:1029C000EA02298D273011F0253041F48A8D8F5F7E
:1029D0008A8F883709F0EAC5198EE8C5222309F4E1
:1029E000E5C588899989892B09F453C08A8D81505E
:1029F0008A8F8F3F09F0DAC53B8D383029F021509E
:102A0000223048F4333039F4198E80E88093F20292
:102A10000E94500B71C4353010F080E307C083E092
:102A200090E002C0880F991F3A95E2F78A8F8B8D4C
:102A30008F5F8B8F898D99278F7090708330910570
:102A4000D1F08430910544F48130910509F450C2ED
:102A5000029709F0ABC50CC08630910509F4E0C3BC
:102A60008830910509F4DCC3049709F09FC5D8C3E9
:102A70001092990340C21092EB021092EA02109257
:102A8000A3051092A20584E08093F2020E94500BED
:102A90006FC42F70233009F089C51092EB02109299
:102AA000EA021092A3051092A20588E08093F20238
:102AB00018C489010852104080917803853409F0C8
:102AC00075C520917A038091EA029091EB02332739
:102AD000892F99272817390769F08091EA02909188
:102AE000EB02322F22279070282B392B3093EB02E8
:102AF0002093EA0220917B038091EA029091EB02FD
:102B0000332790702817390759F08091EA02909185
:102B1000EB028070282B392B3093EB022093EA02D2
:102B200080917E0399278F739070892B09F03EC5A1
:102B300080917F03882309F039C5809188039091A3
:102B400089038E50974209F031C580918A03909194
:102B50008B038F57904209F029C50E94A71D8F5FF4
:102B60009F4F09F023C5809181038630B9F18130F0
:102B700009F01CC580918C03883009F017C51092AC
:102B80008C0380918E0390918F032FEF873F9207E4
:102B900010F0099601C0089690938F0380938E03DE
:102BA000209188033091890380918403909185035B
:102BB000F801918B808B3587248720918A0330918F
:102BC0008B0330938600209385008091860390913B
:102BD0008703938B828B37872687ECC40E94AC1DBA
:102BE0008F5F9F4F09F0E2C4C7EFD2E0898D882341
:102BF00029F120918E0330918F038C819D812817BC
:102C00003907E1F420918C0330918D038E819F81EF
:102C10002817390799F4209184033091850388811E
:102C200099812817390751F4209186033091870341
:102C30008A819B812817390709F474C1A39623E080
:102C4000C036D20799F6809199038F738230E9F4E8
:102C500040918E0350918F035093860040938500DE
:102C60001092830020E00DC0E22FFF27EE0FFF1F20
:102C7000E05AFC4F808191812F5F4817590709F472
:102C800066C0253088F3209383008091990382FDEC
:102C90008DC484E1F80181A388E290E09093EB0277
:102CA0008093EA0280E580A390919303809197033B
:102CB000838F3091920380919603828F368F40915B
:102CC000910380919503818F458F209190032093EC
:102CD000830080919403808F248F9F5F978F992327
:102CE00061F4832F8F5F868F882339F4842F8F5F61
:102CF000858F882311F42F5F248F20918C033091CE
:102D00008D0380918E0390918F03F801958B848BB6
:102D1000378B268B2091880330918903809184031F
:102D200090918503918B808B3587248720918A032E
:102D300030918B0330938600209385008091860329
:102D400090918703938B828B37872687EDC31092F0
:102D50008300C0E0D0E040E028C0242F332783E286
:102D600090E0289FF001299FF00D389FF00D11246D
:102D7000E950FD4F818D882349F44093830083E21D
:102D8000489FE0011124C950DD4F13C0873061F422
:102D9000209721F0928D8A8D891730F483E2489F25
:102DA000E0011124C950DD4F4F5F4330B0F2409332
:102DB0008300209709F4FAC3D093F602C093F5027A
:102DC00083E08A8F888F1E8A84E08F8B1B8E809190
:102DD0008E0390918F039D838C8380918C039091BF
:102DE0008D039F838E8380918403909185039983C3
:102DF000888380918603909187039B838A8381E0F7
:102E0000898F80917D008C8780917E008D87809155
:102E10007F008E87809180008F8781E090E0998B82
:102E2000888B809193038B87809192038A8780910E
:102E30009103898780919003888781E090E00E94C8
:102E40008D14809198039927807F9070813591052A
:102E50000CF44EC0109283002091840030E034C006
:102E6000FD01E659FC4F26A9222319F41092840093
:102E70003DC0213011F43F5F27C02230F1F487A913
:102E80008430D9F4209384003093830020AD33271D
:102E9000322F222781AD9927282B392B309386009A
:102EA00020938500F2E021303F0710F020E032E06F
:102EB0003B8B2A8B3D8B2C8B1BC0A659BC4FD796C6
:102EC0008C91882389F0380FA32FBB27809198031A
:102ED00082958F7099270597880F991F880F991FE2
:102EE000A817B9070CF4BCCF20938400309383005B
:102EF00080E1809399038091990382608093990384
:102F000092E09093A00384E08093A1039093A203A6
:102F10001092A3038CE290E09093EB028093EA027C
:102F200080E6B4C2D093F602C093F5021092F2028A
:102F300080919903482F552742FF03C0198E80E2E4
:102F400044C28091980382958F70880F880F809378
:102F500083002091EA023091EB02281B31092451B1
:102F600030403093EB022093EA028091EA02909184
:102F7000EB02892BC1F0909190038885981709F096
:102F80007BC2909191038985981709F075C2909141
:102F900092038A85981709F06FC2909193038B85ED
:102FA000981709F069C244FF51C068897989611591
:102FB000710509F44BC0CE010C960E947D1D9091C5
:102FC00094038091EE02981709F040C09091950308
:102FD0008091EF029817D1F5909196038091F002BD
:102FE0009817A1F5909197038091F102981771F5C8
:102FF0008091EE028C878091EF028D878091F002A4
:103000008E878091F1028F878B8D8823D1F42E8952
:10301000988D8A8D981B822F869586958695981B0C
:10302000392F320F3E8B8F89282F26952695821BAC
:1030300097FD9195890F8F8B369536953695830F31
:10304000888F81E08093F202888D8A8F898D482F46
:103050005527CA018F7090708430910509F4BAC168
:10306000853091055CF482309105B1F18330910592
:103070000CF0AEC0019709F099C210C086309105DE
:1030800009F4F2C1863091050CF4CAC1873091056C
:1030900009F4F2C1089709F089C291C18091F20246
:1030A00080FF84C283E0898F80E48093F202198AD2
:1030B000188A8091EA029091EB02892B09F40DC1E4
:1030C0008091F20282608093F2028091EA029091F4
:1030D000EB020E948D1401C18091F20280FFD5CDD8
:1030E00080919903823109F0D0CD8091980399277E
:1030F000807F9070813591050CF44EC01092830052
:103100002091840030E034C0FD01E659FC4F26A92F
:10311000222319F4109284003DC0213011F43F5F46
:1031200027C02230F1F487A98430D9F42093840099
:103130003093830020AD3327322F222781AD99278A
:10314000282B392B309386002093850082E0213094
:10315000380710F020E032E03B8B2A8B3D8B2C8B24
:103160001BC0A659BC4FD7968C91882389F0380F85
:10317000A32FBB278091980382958F70992705977D
:10318000880F991F880F991FA817B9070CF4BCCF97
:10319000209384003093830083E0898F8091900393
:1031A0008887809191038987809192038A87809193
:1031B00093038B8781E090E00E948D1482E48093DA
:1031C000F202198A188A1092EB021092EA0285C064
:1031D00080919903992780FF27C088899989892B35
:1031E00009F0E4C18091EA029091EB0201960E94FD
:1031F0008D1480E18093F2028091EA029091EB02BB
:10320000892B29F08091F20282608093F2020E9461
:10321000500B81E090E0998B888B88E0898F1B8E22
:1032200081E1809399032BC185FF1EC020919E03ED
:1032300080919F033327322F22279927282B392B60
:103240008091F3029091F402820F931F9093F40205
:103250008093F3028091EA029091EB02821B930B20
:103260009093EB028093EA028091EA029091EB0244
:10327000892B69F044FD0BC08091F202826080933B
:10328000F2028091EA029091EB020E948D148091EB
:103290009A0320919B039927982F8827820F911DCD
:1032A00090938600809385002C893D8928173907E3
:1032B00010F0892B21F430938600209385008091B3
:1032C0008500909186009B8B8A8B8091F2029927D2
:1032D00083709070892B09F469C11092A305109234
:1032E000A2050E94500B8091F20285FF07C0109248
:1032F000A3051092A205198E84E193CF8091F2026A
:1033000084FF0AC01092A3051092A20581E090E00C
:10331000998B888B84E082CF8091A2059091A30540
:10332000892B19F18091F20280FF02C0198A188A54
:10333000888999890097A1F48091A2059091A305AD
:103340002A893B892817390720F43093A305209355
:10335000A2058091A2059091A305998B888B07C047
:103360009093A3058093A20502C0198A188A1B8E28
:103370008091EC029091ED029093F4028093F3021D
:103380008091A2059091A305892B59F0888999898C
:10339000009739F088969093EB028093EA0288E1D7
:1033A0000BC08091F20281FF01C188E290E090930E
:1033B000EB028093EA0280E18093990366C08091DA
:1033C000F20280FFF3C0198E80E18093F2020E9426
:1033D000500BECC08091EA029091EB02892B31F006
:1033E0008091EA029091EB020E948D1480919903E2
:1033F00080FF0DC08091F20280FF06C087E0898FB8
:103400001A8E198A188A1FC086E0898F1CC0809185
:10341000F20280FF22C085E0898F198A188AC6C00F
:103420008091EA029091EB02892B31F08091EA02BF
:103430009091EB020E948D148091990380FF0DC042
:1034400087E0898F1A8E81E090E00E948D1480E1E0
:103450008093F2020E94500B0FC08091EA0290917B
:10346000EB02892B49F4A2C08091F20280FF9EC03A
:1034700087E0898F1A8E9AC080E1F80181A388E2E3
:1034800090E09093EB028093EA0280E580939803AA
:103490008885809394038985809395038A8580939A
:1034A00096038B85809397038C85809390038D85FD
:1034B000809391038E85809392038F8580939303ED
:1034C00086E0809381038C819D8190938D0380930E
:1034D0008C038E819F8190938F0380938E038EE067
:1034E00097E290938503809384038FE790E2909313
:1034F00087038093860388819981909389038093C1
:1035000088038A819B8190938B0380938A03898DA2
:1035100084FF05C010929B0310929A0305C080E8B7
:1035200080939A0310929B038091EA029091EB02A0
:10353000892F992780937A038091EA029091EB0278
:1035400080937B0310929D0310929C030E94AC1DFC
:103550008095909590939D0380939C0385E4809340
:1035600078031092790310927F0310927E038FEFFD
:103570008093800380917B0090917C0001969093D2
:103580007C0080937B00292F332720937C0380933A
:103590007D0310928303109282030E94A71D8095E1
:1035A0009095909383038093820304C01092EB0262
:1035B0001092EA02DF91CF911F910F9108958091AF
:1035C000E5008F5F8093E5001092E30020C08BE060
:1035D000289FF0011124E957FF4F828193812081B8
:1035E0003181822B932B892B69F08091E5009927FB
:1035F0002285821B91098837910524F0108211825F
:10360000128213828091E3008F5F8093E300209108
:10361000E3002830E0F208951092E3000DC0EBE0E3
:103620008E9FF0011124E957FF4F10821182128200
:1036300013828F5F8093E3008091E300883078F3FA
:103640000895CF93DF93E0918803F09189038091EF
:10365000690090916A00C0916100D09162009C0164
:103660002E233F238C239D2328173907A1F4609133
:103670008A0370918B0380916B0090916C00AC0178
:1036800046235723209163003091640082239323C3
:103690004817590789F080916500909166009093D2
:1036A000E0008093DF008091670090916800909324
:1036B000E2008093E10008C0F093E000E093DF00B7
:1036C0007093E2006093E1001092E3006091DF00EC
:1036D0007091E0004091E1005091E20020E014C0C0
:1036E0008BE0289FF0011124E957FF4F80819181E1
:1036F0006817790741F4828193814817590719F4B3
:103700002093E30069C02F5F283050F32093E3003B
:10371000283009F061C046E050E06FEF70E08AE6C3
:1037200093E00E94721EEAE8F3E086E0DF011D925A
:103730008A95E9F77A97ADE6B0E086E00D900192C0
:103740008150E1F7A0E8B3E0EDE6F0E086E001901B
:103750000D928150E1F78091DF009091E00090930D
:103760009103809390038091E1009091E200909307
:10377000930380939203D0938703C0938603809131
:10378000630090916400909389038093880380E0A4
:1037900091E090937F0380937E03909379038093CD
:1037A000780388E090E090937B0380937A0386E02F
:1037B00080937C0384E080937D0388E096E090937F
:1037C00077038093760380EA93E09093F4028093EA
:1037D000F3028AE290E01CC0AAE6B3E0349686E0E9
:1037E00001900D928150E1F7A0E7B3E0EDE6F0E043
:1037F00086E001900D928150E1F788E090E0EAE6E2
:10380000F3E0958784878091EA029091EB020E960F
:103810009093EB028093EA02DF91CF910895EF92AB
:10382000FF921F93CF93DF93DC017B011092E300A3
:10383000E0E029C08BE0E89FE0011124C957DF4F89
:103840004881598141155105E9F02A813B812115B3
:103850003105C1F08D919C9111978417950791F4D2
:1038600012968D919C9113978217930759F4E093C8
:10387000E300DE011496F70186E001900D9281507D
:10388000E1F756C0EF5FE830A8F21092E30020E0C5
:1038900012C08BE0289FE0011124C957DF4F8881B7
:1038A0009981892B39F48A819B81892B19F4209382
:1038B000E3002EC02F5F283060F32093E300283010
:1038C00039F51092E6001092E4001091E500612FA6
:1038D0007727F0E0E0E050E013C08BE0589FE00174
:1038E0001124C957DF4F4A859B01241B31098E2FB4
:1038F0009927821793071CF4E12FE41BF52F5F5FD4
:10390000583058F3F093E400E093E600F093E300BE
:103910008D919D910D90BC91A02DFE01819391936D
:10392000A193B193D70186E00D9001928150E1F708
:103930008091E5008A87DF91CF911F91FF90EF90F2
:103940000895CF93DF938091EA029091EB028A97DA
:1039500028F41092EB021092EA0296C01092EB0249
:103960001092EA02AAE6B3E080917E0390917F0371
:1039700021E08030920729F08050924009F084C005
:1039800067C04091900350919103809161009091A4
:1039900062004817590709F077C0209192033091CF
:1039A000930380916300909164002817390709F010
:1039B0006BC080E092E090937F0380937E03ED01E3
:1039C000A096FD01769686E0019009928150E1F77C
:1039D000C0E8D3E0EDE6F0E086E001900992815086
:1039E000E1F7C0E7D3E0EDE6F0E086E00190099270
:1039F0008150E1F7EAE6F3E0EF01A09686E0099056
:103A000001928150E1F78091860390918703979608
:103A10009C938E93969780918803909189039996B1
:103A20009C938E9398975D965C934E935C975F966C
:103A30003C932E935E9788E096E01D969C938E9320
:103A40001C978AE290E09093EB028093EA021CC0FC
:103A500020919003309191038091610090916200D8
:103A60002817390789F420919203309193038091AC
:103A70006300909164002817390731F460E873E01F
:103A800086E893E00E940F1CDF91CF91089580910A
:103A9000EA029091EB020E979093EB028093EA0278
:103AA0008091690090916A00209184033091850390
:103AB000282339234091610050916200842395238B
:103AC00028173907C9F480916B0090916C00209100
:103AD0008603309187032823392340916300509156
:103AE0006400842395232817390731F460E773E0D5
:103AF00084E893E00E940F1C0895FC018381928169
:103B0000A181B081860F971FA11DB11D8093F10285
:103B10009093F002A093EF02B093EE020895FC019F
:103B2000882799276230710550F0DB01AE7F7191D3
:103B3000870F7191971F811D911D1297C1F760FF2B
:103B400008957081870F911D811D911D089564E175
:103B500070E088E793E0E3CF64E170E08CE893E005
:103B6000DEDF9C0180917B0390917A034497AC0146
:103B70004497BC018091F3029091F402D0DF820F50
:103B8000931F6091840370918503861F971F609136
:103B9000860370918703861F971F60918803709139
:103BA0008903861F971F60918A0370918B03861F7C
:103BB000971F76E0811D971F851F941F811D911D02
:103BC0000895629FD001739FF001829FE00DF11D67
:103BD000649FE00DF11D929FF00D839FF00D749F87
:103BE000F00D659FF00D9927729FB00DE11DF91F33
:103BF000639FB00DE11DF91FBD01CF011124089590
:103C000097FB092E05260ED057FD04D014D00AD0FC
:103C1000001C38F450954095309521953F4F4F4FFB
:103C20005F4F0895F6F790958095709561957F4F59
:103C30008F4F9F4F0895A1E21A2EAA1BBB1BFD01B7
:103C40000DC0AA1FBB1FEE1FFF1FA217B307E4077B
:103C5000F50720F0A21BB30BE40BF50B661F771FD3
:103C6000881F991F1A9469F76095709580959095B3
:103C70009B01AC01BD01CF010895FC018827992764
:103C8000E89421912032E9F3293010F02E30C8F366
:103C90002B3241F02D3239F4689404C00E94791E11
:103CA000820F911D219120532A30C0F31EF490956C
:103CB00081959F4F0895FB01DC0102C005900D9294
:103CC00041505040D8F70895FB01DC01415050406D
:103CD00030F08D910590801919F40020B9F7881BF8
:103CE000990B0895DC0101C06D9341505040E0F7FD
:103CF00008957AE0979F902D879F802D910D112434
:043D00000895FFCF54
:103D0400010E277F200E27010BFFFF80003046465F
:043D140049434500DA
:00000001FF
